{
  "contractName": "VaccinationRegistry",
  "abi": [
    {
      "inputs": [
        {
          "internalType": "contract VaccinationCentre",
          "name": "_vaccinationCentre",
          "type": "address"
        },
        {
          "internalType": "contract VaccinationValidator",
          "name": "_vaccinationValidator",
          "type": "address"
        }
      ],
      "stateMutability": "nonpayable",
      "type": "constructor"
    },
    {
      "anonymous": false,
      "inputs": [
        {
          "indexed": false,
          "internalType": "address",
          "name": "_personAddress",
          "type": "address"
        },
        {
          "indexed": false,
          "internalType": "address",
          "name": "_centreAddress",
          "type": "address"
        },
        {
          "indexed": false,
          "internalType": "string",
          "name": "_timestamp",
          "type": "string"
        },
        {
          "indexed": false,
          "internalType": "uint256",
          "name": "_vaccineCode",
          "type": "uint256"
        },
        {
          "indexed": false,
          "internalType": "uint256",
          "name": "_vaccineDose",
          "type": "uint256"
        }
      ],
      "name": "VaccinationRegistered",
      "type": "event"
    },
    {
      "inputs": [],
      "name": "vaccinationCentre",
      "outputs": [
        {
          "internalType": "contract VaccinationCentre",
          "name": "",
          "type": "address"
        }
      ],
      "stateMutability": "view",
      "type": "function",
      "constant": true
    },
    {
      "inputs": [],
      "name": "vaccinationValidator",
      "outputs": [
        {
          "internalType": "contract VaccinationValidator",
          "name": "",
          "type": "address"
        }
      ],
      "stateMutability": "view",
      "type": "function",
      "constant": true
    },
    {
      "inputs": [
        {
          "internalType": "address",
          "name": "_personAddress",
          "type": "address"
        },
        {
          "internalType": "address",
          "name": "_centreAddress",
          "type": "address"
        },
        {
          "internalType": "string",
          "name": "_timestamp",
          "type": "string"
        },
        {
          "internalType": "uint256",
          "name": "_vaccineCode",
          "type": "uint256"
        },
        {
          "internalType": "uint256",
          "name": "_vaccineDose",
          "type": "uint256"
        },
        {
          "internalType": "string",
          "name": "_fullName",
          "type": "string"
        },
        {
          "internalType": "string",
          "name": "_birthDate",
          "type": "string"
        },
        {
          "internalType": "string",
          "name": "_passportNumber",
          "type": "string"
        },
        {
          "internalType": "string",
          "name": "_nationality",
          "type": "string"
        }
      ],
      "name": "registerVaccination",
      "outputs": [],
      "stateMutability": "nonpayable",
      "type": "function"
    },
    {
      "inputs": [
        {
          "internalType": "address",
          "name": "_area",
          "type": "address"
        }
      ],
      "name": "validateVaccination",
      "outputs": [],
      "stateMutability": "view",
      "type": "function",
      "constant": true
    },
    {
      "inputs": [],
      "name": "getIsRegistered",
      "outputs": [
        {
          "internalType": "bool",
          "name": "",
          "type": "bool"
        }
      ],
      "stateMutability": "view",
      "type": "function",
      "constant": true
    },
    {
      "inputs": [],
      "name": "getPersonId",
      "outputs": [
        {
          "internalType": "bytes32",
          "name": "",
          "type": "bytes32"
        }
      ],
      "stateMutability": "view",
      "type": "function",
      "constant": true
    },
    {
      "inputs": [],
      "name": "getVaccineProofs",
      "outputs": [
        {
          "internalType": "bytes32[]",
          "name": "",
          "type": "bytes32[]"
        }
      ],
      "stateMutability": "view",
      "type": "function",
      "constant": true
    },
    {
      "inputs": [],
      "name": "getCentreAddresses",
      "outputs": [
        {
          "internalType": "address[]",
          "name": "",
          "type": "address[]"
        }
      ],
      "stateMutability": "view",
      "type": "function",
      "constant": true
    },
    {
      "inputs": [],
      "name": "getTimeStamps",
      "outputs": [
        {
          "internalType": "string[]",
          "name": "",
          "type": "string[]"
        }
      ],
      "stateMutability": "view",
      "type": "function",
      "constant": true
    },
    {
      "inputs": [],
      "name": "getVaccineCodes",
      "outputs": [
        {
          "internalType": "uint256[]",
          "name": "",
          "type": "uint256[]"
        }
      ],
      "stateMutability": "view",
      "type": "function",
      "constant": true
    },
    {
      "inputs": [],
      "name": "getVaccineDoses",
      "outputs": [
        {
          "internalType": "uint256[]",
          "name": "",
          "type": "uint256[]"
        }
      ],
      "stateMutability": "view",
      "type": "function",
      "constant": true
    }
  ],
  "bytecode": "0x60806040523480156200001157600080fd5b506040516200223d3803806200223d833981810160405281019062000037919062000184565b81600160006101000a81548173ffffffffffffffffffffffffffffffffffffffff021916908373ffffffffffffffffffffffffffffffffffffffff16021790555080600260006101000a81548173ffffffffffffffffffffffffffffffffffffffff021916908373ffffffffffffffffffffffffffffffffffffffff1602179055505050620001cb565b600080fd5b600073ffffffffffffffffffffffffffffffffffffffff82169050919050565b6000620000f382620000c6565b9050919050565b60006200010782620000e6565b9050919050565b6200011981620000fa565b81146200012557600080fd5b50565b60008151905062000139816200010e565b92915050565b60006200014c82620000e6565b9050919050565b6200015e816200013f565b81146200016a57600080fd5b50565b6000815190506200017e8162000153565b92915050565b600080604083850312156200019e576200019d620000c1565b5b6000620001ae8582860162000128565b9250506020620001c1858286016200016d565b9150509250929050565b61206280620001db6000396000f3fe608060405234801561001057600080fd5b50600436106100a95760003560e01c806389d262941161007157806389d2629414610144578063ac1abfcb14610162578063ae6ef7b01461017e578063d9838d521461019c578063e0cbea69146101ba578063eac2ee54146101d8576100a9565b80630610f95f146100ae5780634215fe0d146100cc5780635ca2b5c6146100ea5780636fffb3951461010857806373d4ca9414610126575b600080fd5b6100b66101f4565b6040516100c39190611172565b60405180910390f35b6100d461028b565b6040516100e19190611284565b60405180910390f35b6100f2610471565b6040516100ff9190611401565b60405180910390f35b610110610695565b60405161011d91906114eb565b60405180910390f35b61012e61082d565b60405161013b9190611528565b60405180910390f35b61014c610883565b6040516101599190611552565b60405180910390f35b61017c6004803603810190610177919061170e565b6108cc565b005b610186610be7565b60405161019391906118c3565b60405180910390f35b6101a4610c0d565b6040516101b191906118ff565b60405180910390f35b6101c2610c33565b6040516101cf91906114eb565b60405180910390f35b6101f260048036038101906101ed919061191a565b610dcb565b005b60606000803373ffffffffffffffffffffffffffffffffffffffff1673ffffffffffffffffffffffffffffffffffffffff16815260200190815260200160002060020180548060200260200160405190810160405280929190818152602001828054801561028157602002820191906000526020600020905b81548152602001906001019080831161026d575b5050505050905090565b606060008060003373ffffffffffffffffffffffffffffffffffffffff1673ffffffffffffffffffffffffffffffffffffffff16815260200190815260200160002060020180548060200260200160405190810160405280929190818152602001828054801561031a57602002820191906000526020600020905b815481526020019060010190808311610306575b505050505090506000815167ffffffffffffffff81111561033e5761033d6115b7565b5b60405190808252806020026020018201604052801561036c5781602001602082028036833780820191505090505b50905060005b8251811015610468576000803373ffffffffffffffffffffffffffffffffffffffff1673ffffffffffffffffffffffffffffffffffffffff16815260200190815260200160002060030160008483815181106103d1576103d0611947565b5b6020026020010151815260200190815260200160002060009054906101000a900473ffffffffffffffffffffffffffffffffffffffff1682828151811061041b5761041a611947565b5b602002602001019073ffffffffffffffffffffffffffffffffffffffff16908173ffffffffffffffffffffffffffffffffffffffff16815250508080610460906119a5565b915050610372565b50809250505090565b606060008060003373ffffffffffffffffffffffffffffffffffffffff1673ffffffffffffffffffffffffffffffffffffffff16815260200190815260200160002060020180548060200260200160405190810160405280929190818152602001828054801561050057602002820191906000526020600020905b8154815260200190600101908083116104ec575b505050505090506000815167ffffffffffffffff811115610524576105236115b7565b5b60405190808252806020026020018201604052801561055757816020015b60608152602001906001900390816105425790505b50905060005b825181101561068c576000803373ffffffffffffffffffffffffffffffffffffffff1673ffffffffffffffffffffffffffffffffffffffff16815260200190815260200160002060040160008483815181106105bc576105bb611947565b5b6020026020010151815260200190815260200160002080546105dd90611a1d565b80601f016020809104026020016040519081016040528092919081815260200182805461060990611a1d565b80156106565780601f1061062b57610100808354040283529160200191610656565b820191906000526020600020905b81548152906001019060200180831161063957829003601f168201915b505050505082828151811061066e5761066d611947565b5b60200260200101819052508080610684906119a5565b91505061055d565b50809250505090565b606060008060003373ffffffffffffffffffffffffffffffffffffffff1673ffffffffffffffffffffffffffffffffffffffff16815260200190815260200160002060020180548060200260200160405190810160405280929190818152602001828054801561072457602002820191906000526020600020905b815481526020019060010190808311610710575b505050505090506000815167ffffffffffffffff811115610748576107476115b7565b5b6040519080825280602002602001820160405280156107765781602001602082028036833780820191505090505b50905060005b8251811015610824576000803373ffffffffffffffffffffffffffffffffffffffff1673ffffffffffffffffffffffffffffffffffffffff16815260200190815260200160002060050160008483815181106107db576107da611947565b5b602002602001015181526020019081526020016000205482828151811061080557610804611947565b5b602002602001018181525050808061081c906119a5565b91505061077c565b50809250505090565b60008060003373ffffffffffffffffffffffffffffffffffffffff1673ffffffffffffffffffffffffffffffffffffffff16815260200190815260200160002060000160009054906101000a900460ff16905090565b60008060003373ffffffffffffffffffffffffffffffffffffffff1673ffffffffffffffffffffffffffffffffffffffff16815260200190815260200160002060010154905090565b3373ffffffffffffffffffffffffffffffffffffffff168973ffffffffffffffffffffffffffffffffffffffff161461093a576040517f08c379a000000000000000000000000000000000000000000000000000000000815260040161093190611ad2565b60405180910390fd5b600160009054906101000a900473ffffffffffffffffffffffffffffffffffffffff1673ffffffffffffffffffffffffffffffffffffffff1663880458d9896040518263ffffffff1660e01b81526004016109959190611b01565b600060405180830381865afa1580156109b2573d6000803e3d6000fd5b505050506040513d6000823e3d601f19601f820116820180604052508101906109db9190611c5e565b60000151610a1e576040517f08c379a0000000000000000000000000000000000000000000000000000000008152600401610a1590611d3f565b60405180910390fd5b60008060003373ffffffffffffffffffffffffffffffffffffffff1673ffffffffffffffffffffffffffffffffffffffff16815260200190815260200160002090508060000160009054906101000a900460ff16610aa95760018160000160006101000a81548160ff021916908315150217905550610aa08585858533610f85565b81600101819055505b6000610abc8a8a8a8a8660010154610fc6565b9050816002018190806001815401808255809150506001900390600052602060002001600090919091909150558982600301600083815260200190815260200160002060006101000a81548173ffffffffffffffffffffffffffffffffffffffff021916908373ffffffffffffffffffffffffffffffffffffffff160217905550888260040160008381526020019081526020016000209080519060200190610b66929190611007565b50878260050160008381526020019081526020016000208190555086826006016000838152602001908152602001600020819055507fbef735611bf5cf1b3eb80b978080a368fd58c3f3ed0e90a6f44e0c4ca106a552338b8b8b8b604051610bd2959493929190611da7565b60405180910390a15050505050505050505050565b600160009054906101000a900473ffffffffffffffffffffffffffffffffffffffff1681565b600260009054906101000a900473ffffffffffffffffffffffffffffffffffffffff1681565b606060008060003373ffffffffffffffffffffffffffffffffffffffff1673ffffffffffffffffffffffffffffffffffffffff168152602001908152602001600020600201805480602002602001604051908101604052809291908181526020018280548015610cc257602002820191906000526020600020905b815481526020019060010190808311610cae575b505050505090506000815167ffffffffffffffff811115610ce657610ce56115b7565b5b604051908082528060200260200182016040528015610d145781602001602082028036833780820191505090505b50905060005b8251811015610dc2576000803373ffffffffffffffffffffffffffffffffffffffff1673ffffffffffffffffffffffffffffffffffffffff1681526020019081526020016000206006016000848381518110610d7957610d78611947565b5b6020026020010151815260200190815260200160002054828281518110610da357610da2611947565b5b6020026020010181815250508080610dba906119a5565b915050610d1a565b50809250505090565b6000610dd561082d565b90506000610de16101f4565b90506000610ded610695565b90506000610df9610c33565b905083610e3b576040517f08c379a0000000000000000000000000000000000000000000000000000000008152600401610e3290611e4d565b60405180910390fd5b6000805b8451811015610f3c57600260009054906101000a900473ffffffffffffffffffffffffffffffffffffffff1673ffffffffffffffffffffffffffffffffffffffff1663217275c588868481518110610e9a57610e99611947565b5b6020026020010151868581518110610eb557610eb4611947565b5b60200260200101516040518463ffffffff1660e01b8152600401610edb93929190611e6d565b602060405180830381865afa158015610ef8573d6000803e3d6000fd5b505050506040513d601f19601f82011682018060405250810190610f1c9190611ea4565b91508115610f2957610f3c565b8080610f34906119a5565b915050610e3f565b5080610f7d576040517f08c379a0000000000000000000000000000000000000000000000000000000008152600401610f7490611f43565b60405180910390fd5b505050505050565b6000808686868686604051602001610fa1959493929190611f63565b6040516020818303038152906040528051906020012090508091505095945050505050565b6000808686868686604051602001610fe2959493929190611fd2565b6040516020818303038152906040528051906020012090508091505095945050505050565b82805461101390611a1d565b90600052602060002090601f016020900481019282611035576000855561107c565b82601f1061104e57805160ff191683800117855561107c565b8280016001018555821561107c579182015b8281111561107b578251825591602001919060010190611060565b5b509050611089919061108d565b5090565b5b808211156110a657600081600090555060010161108e565b5090565b600081519050919050565b600082825260208201905092915050565b6000819050602082019050919050565b6000819050919050565b6110e9816110d6565b82525050565b60006110fb83836110e0565b60208301905092915050565b6000602082019050919050565b600061111f826110aa565b61112981856110b5565b9350611134836110c6565b8060005b8381101561116557815161114c88826110ef565b975061115783611107565b925050600181019050611138565b5085935050505092915050565b6000602082019050818103600083015261118c8184611114565b905092915050565b600081519050919050565b600082825260208201905092915050565b6000819050602082019050919050565b600073ffffffffffffffffffffffffffffffffffffffff82169050919050565b60006111eb826111c0565b9050919050565b6111fb816111e0565b82525050565b600061120d83836111f2565b60208301905092915050565b6000602082019050919050565b600061123182611194565b61123b818561119f565b9350611246836111b0565b8060005b8381101561127757815161125e8882611201565b975061126983611219565b92505060018101905061124a565b5085935050505092915050565b6000602082019050818103600083015261129e8184611226565b905092915050565b600081519050919050565b600082825260208201905092915050565b6000819050602082019050919050565b600081519050919050565b600082825260208201905092915050565b60005b8381101561130c5780820151818401526020810190506112f1565b8381111561131b576000848401525b50505050565b6000601f19601f8301169050919050565b600061133d826112d2565b61134781856112dd565b93506113578185602086016112ee565b61136081611321565b840191505092915050565b60006113778383611332565b905092915050565b6000602082019050919050565b6000611397826112a6565b6113a181856112b1565b9350836020820285016113b3856112c2565b8060005b858110156113ef57848403895281516113d0858261136b565b94506113db8361137f565b925060208a019950506001810190506113b7565b50829750879550505050505092915050565b6000602082019050818103600083015261141b818461138c565b905092915050565b600081519050919050565b600082825260208201905092915050565b6000819050602082019050919050565b6000819050919050565b6114628161144f565b82525050565b60006114748383611459565b60208301905092915050565b6000602082019050919050565b600061149882611423565b6114a2818561142e565b93506114ad8361143f565b8060005b838110156114de5781516114c58882611468565b97506114d083611480565b9250506001810190506114b1565b5085935050505092915050565b60006020820190508181036000830152611505818461148d565b905092915050565b60008115159050919050565b6115228161150d565b82525050565b600060208201905061153d6000830184611519565b92915050565b61154c816110d6565b82525050565b60006020820190506115676000830184611543565b92915050565b6000604051905090565b600080fd5b600080fd5b61158a816111e0565b811461159557600080fd5b50565b6000813590506115a781611581565b92915050565b600080fd5b600080fd5b7f4e487b7100000000000000000000000000000000000000000000000000000000600052604160045260246000fd5b6115ef82611321565b810181811067ffffffffffffffff8211171561160e5761160d6115b7565b5b80604052505050565b600061162161156d565b905061162d82826115e6565b919050565b600067ffffffffffffffff82111561164d5761164c6115b7565b5b61165682611321565b9050602081019050919050565b82818337600083830152505050565b600061168561168084611632565b611617565b9050828152602081018484840111156116a1576116a06115b2565b5b6116ac848285611663565b509392505050565b600082601f8301126116c9576116c86115ad565b5b81356116d9848260208601611672565b91505092915050565b6116eb8161144f565b81146116f657600080fd5b50565b600081359050611708816116e2565b92915050565b60008060008060008060008060006101208a8c03121561173157611730611577565b5b600061173f8c828d01611598565b99505060206117508c828d01611598565b98505060408a013567ffffffffffffffff8111156117715761177061157c565b5b61177d8c828d016116b4565b975050606061178e8c828d016116f9565b965050608061179f8c828d016116f9565b95505060a08a013567ffffffffffffffff8111156117c0576117bf61157c565b5b6117cc8c828d016116b4565b94505060c08a013567ffffffffffffffff8111156117ed576117ec61157c565b5b6117f98c828d016116b4565b93505060e08a013567ffffffffffffffff81111561181a5761181961157c565b5b6118268c828d016116b4565b9250506101008a013567ffffffffffffffff8111156118485761184761157c565b5b6118548c828d016116b4565b9150509295985092959850929598565b6000819050919050565b600061188961188461187f846111c0565b611864565b6111c0565b9050919050565b600061189b8261186e565b9050919050565b60006118ad82611890565b9050919050565b6118bd816118a2565b82525050565b60006020820190506118d860008301846118b4565b92915050565b60006118e982611890565b9050919050565b6118f9816118de565b82525050565b600060208201905061191460008301846118f0565b92915050565b6000602082840312156119305761192f611577565b5b600061193e84828501611598565b91505092915050565b7f4e487b7100000000000000000000000000000000000000000000000000000000600052603260045260246000fd5b7f4e487b7100000000000000000000000000000000000000000000000000000000600052601160045260246000fd5b60006119b08261144f565b91507fffffffffffffffffffffffffffffffffffffffffffffffffffffffffffffffff8214156119e3576119e2611976565b5b600182019050919050565b7f4e487b7100000000000000000000000000000000000000000000000000000000600052602260045260246000fd5b60006002820490506001821680611a3557607f821691505b60208210811415611a4957611a486119ee565b5b50919050565b600082825260208201905092915050565b7f596f752063616e6e6f742072656769737465722076616363696e6174696f6e2060008201527f666f722074686973206164647265737300000000000000000000000000000000602082015250565b6000611abc603083611a4f565b9150611ac782611a60565b604082019050919050565b60006020820190508181036000830152611aeb81611aaf565b9050919050565b611afb816111e0565b82525050565b6000602082019050611b166000830184611af2565b92915050565b600080fd5b600080fd5b611b2f8161150d565b8114611b3a57600080fd5b50565b600081519050611b4c81611b26565b92915050565b6000611b65611b6084611632565b611617565b905082815260208101848484011115611b8157611b806115b2565b5b611b8c8482856112ee565b509392505050565b600082601f830112611ba957611ba86115ad565b5b8151611bb9848260208601611b52565b91505092915050565b600060608284031215611bd857611bd7611b1c565b5b611be26060611617565b90506000611bf284828501611b3d565b600083015250602082015167ffffffffffffffff811115611c1657611c15611b21565b5b611c2284828501611b94565b602083015250604082015167ffffffffffffffff811115611c4657611c45611b21565b5b611c5284828501611b94565b60408301525092915050565b600060208284031215611c7457611c73611577565b5b600082015167ffffffffffffffff811115611c9257611c9161157c565b5b611c9e84828501611bc2565b91505092915050565b7f596f752063616e6e6f7420726567697374657220796f75722076616363696e6160008201527f74696f6e2066726f6d207468697320726567697374726174696f6e2063656e7460208201527f7265000000000000000000000000000000000000000000000000000000000000604082015250565b6000611d29604283611a4f565b9150611d3482611ca7565b606082019050919050565b60006020820190508181036000830152611d5881611d1c565b9050919050565b6000611d6a826112d2565b611d748185611a4f565b9350611d848185602086016112ee565b611d8d81611321565b840191505092915050565b611da18161144f565b82525050565b600060a082019050611dbc6000830188611af2565b611dc96020830187611af2565b8181036040830152611ddb8186611d5f565b9050611dea6060830185611d98565b611df76080830184611d98565b9695505050505050565b7f56616363696e6174696f6e206973206e6f742072656769737465726564000000600082015250565b6000611e37601d83611a4f565b9150611e4282611e01565b602082019050919050565b60006020820190508181036000830152611e6681611e2a565b9050919050565b6000606082019050611e826000830186611af2565b611e8f6020830185611d98565b611e9c6040830184611d98565b949350505050565b600060208284031215611eba57611eb9611577565b5b6000611ec884828501611b3d565b91505092915050565b7f596f752068617665206e6f74206d6574207468652076616363696e6174696f6e60008201527f2072756c657320666f7220746869732061726561000000000000000000000000602082015250565b6000611f2d603483611a4f565b9150611f3882611ed1565b604082019050919050565b60006020820190508181036000830152611f5c81611f20565b9050919050565b600060a0820190508181036000830152611f7d8188611d5f565b90508181036020830152611f918187611d5f565b90508181036040830152611fa58186611d5f565b90508181036060830152611fb98185611d5f565b9050611fc86080830184611af2565b9695505050505050565b600060a082019050611fe76000830188611af2565b8181036020830152611ff98187611d5f565b90506120086040830186611d98565b6120156060830185611d98565b6120226080830184611543565b969550505050505056fea2646970667358221220bbcf69750a58938509792e42c4918f5601729a9674dfb8fc1131392c838fd9a564736f6c634300080b0033",
  "immutableReferences": {},
  "source": "// SPDX-License-Identifier: UNl\r\npragma solidity >=0.7.0;\r\n\r\nimport \"./VaccinationCentre.sol\";\r\nimport \"./VaccinationValidator.sol\";\r\n\r\ncontract VaccinationRegistry {\r\n    struct VaccinationHistory {\r\n        bool isRegistered;\r\n        bytes32 personId;\r\n        bytes32[] vaccineProofs;\r\n        mapping(bytes32 => address) centreAddress;\r\n        mapping(bytes32 => string) timestamp;\r\n        mapping(bytes32 => uint256) vaccineCode;\r\n        mapping(bytes32 => uint256) vaccineDose;\r\n    }\r\n\r\n    mapping(address => VaccinationHistory) vaccinationsDatabase;\r\n\r\n    VaccinationCentre public vaccinationCentre;\r\n    VaccinationValidator public vaccinationValidator;\r\n\r\n    constructor(\r\n        VaccinationCentre _vaccinationCentre,\r\n        VaccinationValidator _vaccinationValidator\r\n    ) {\r\n        vaccinationCentre = _vaccinationCentre;\r\n        vaccinationValidator = _vaccinationValidator;\r\n    }\r\n\r\n    event VaccinationRegistered(\r\n        address _personAddress,\r\n        address _centreAddress,\r\n        string _timestamp,\r\n        uint256 _vaccineCode,\r\n        uint256 _vaccineDose\r\n    );\r\n\r\n    function registerVaccination(\r\n        address _personAddress,\r\n        address _centreAddress,\r\n        string memory _timestamp,\r\n        uint256 _vaccineCode,\r\n        uint256 _vaccineDose,\r\n        string memory _fullName,\r\n        string memory _birthDate,\r\n        string memory _passportNumber,\r\n        string memory _nationality\r\n    ) public {\r\n        require(\r\n            _personAddress == msg.sender,\r\n            \"You cannot register vaccination for this address\"\r\n        );\r\n\r\n        require(\r\n            vaccinationCentre.getCentreDetails(_centreAddress).isRegistered,\r\n            \"You cannot register your vaccination from this registration centre\"\r\n        );\r\n\r\n        VaccinationHistory storage record = vaccinationsDatabase[msg.sender];\r\n\r\n        if (!record.isRegistered) {\r\n            record.isRegistered = true;\r\n            record.personId = _generatePersonId(\r\n                _fullName,\r\n                _birthDate,\r\n                _passportNumber,\r\n                _nationality,\r\n                msg.sender\r\n            );\r\n        }\r\n\r\n        bytes32 _proof = _generateVaccinationProof(\r\n            _centreAddress,\r\n            _timestamp,\r\n            _vaccineCode,\r\n            _vaccineDose,\r\n            record.personId\r\n        );\r\n\r\n        record.vaccineProofs.push(_proof);\r\n        record.centreAddress[_proof] = _centreAddress;\r\n        record.timestamp[_proof] = _timestamp;\r\n        record.vaccineCode[_proof] = _vaccineCode;\r\n        record.vaccineDose[_proof] = _vaccineDose;\r\n\r\n        emit VaccinationRegistered(\r\n            msg.sender,\r\n            _centreAddress,\r\n            _timestamp,\r\n            _vaccineCode,\r\n            _vaccineDose\r\n        );\r\n    }\r\n\r\n    function _generatePersonId(\r\n        string memory _fullName,\r\n        string memory _birthDate,\r\n        string memory _passportNumber,\r\n        string memory _nationality,\r\n        address _personAddress\r\n    ) private pure returns (bytes32) {\r\n        bytes32 _personId = keccak256(\r\n            abi.encode(\r\n                _fullName,\r\n                _birthDate,\r\n                _passportNumber,\r\n                _nationality,\r\n                _personAddress\r\n            )\r\n        );\r\n        return _personId;\r\n    }\r\n\r\n    function _generateVaccinationProof(\r\n        address _centreAddress,\r\n        string memory _timestamp,\r\n        uint256 _vaccineCode,\r\n        uint256 _vaccineDose,\r\n        bytes32 _personId\r\n    ) private pure returns (bytes32) {\r\n        bytes32 _proof = keccak256(\r\n            abi.encode(\r\n                _centreAddress,\r\n                _timestamp,\r\n                _vaccineCode,\r\n                _vaccineDose,\r\n                _personId\r\n            )\r\n        );\r\n        return _proof;\r\n    }\r\n\r\n    function validateVaccination(address _area) public view {\r\n        bool _isRegistered = getIsRegistered();\r\n        bytes32[] memory _vaccineProofs = getVaccineProofs();\r\n        uint256[] memory _vaccineCodes = getVaccineCodes();\r\n        uint256[] memory _vaccineDoses = getVaccineDoses();\r\n\r\n        require(_isRegistered, \"Vaccination is not registered\");\r\n\r\n        bool _outcome = false;\r\n        for (uint256 i = 0; i < _vaccineProofs.length; i++) {\r\n            _outcome = vaccinationValidator.vaccinationIsValid(\r\n                _area,\r\n                _vaccineCodes[i],\r\n                _vaccineDoses[i]\r\n            );\r\n            if (_outcome) {\r\n                break;\r\n            }\r\n        }\r\n        require(\r\n            _outcome,\r\n            \"You have not met the vaccination rules for this area\"\r\n        );\r\n    }\r\n\r\n    function getIsRegistered() public view returns (bool) {\r\n        return vaccinationsDatabase[msg.sender].isRegistered;\r\n    }\r\n\r\n    function getPersonId() public view returns (bytes32) {\r\n        return vaccinationsDatabase[msg.sender].personId;\r\n    }\r\n\r\n    function getVaccineProofs() public view returns (bytes32[] memory) {\r\n        return vaccinationsDatabase[msg.sender].vaccineProofs;\r\n    }\r\n\r\n    function getCentreAddresses() public view returns (address[] memory) {\r\n        bytes32[] memory _vaccineProofs = vaccinationsDatabase[msg.sender]\r\n            .vaccineProofs;\r\n        address[] memory _centreAddresses = new address[](\r\n            _vaccineProofs.length\r\n        );\r\n        for (uint256 i = 0; i < _vaccineProofs.length; i++) {\r\n            _centreAddresses[i] = vaccinationsDatabase[msg.sender]\r\n                .centreAddress[_vaccineProofs[i]];\r\n        }\r\n        return _centreAddresses;\r\n    }\r\n\r\n    function getTimeStamps() public view returns (string[] memory) {\r\n        bytes32[] memory _vaccineProofs = vaccinationsDatabase[msg.sender]\r\n            .vaccineProofs;\r\n        string[] memory _timeStamps = new string[](_vaccineProofs.length);\r\n        for (uint256 i = 0; i < _vaccineProofs.length; i++) {\r\n            _timeStamps[i] = vaccinationsDatabase[msg.sender].timestamp[\r\n                _vaccineProofs[i]\r\n            ];\r\n        }\r\n        return _timeStamps;\r\n    }\r\n\r\n    function getVaccineCodes() public view returns (uint256[] memory) {\r\n        bytes32[] memory _vaccineProofs = vaccinationsDatabase[msg.sender]\r\n            .vaccineProofs;\r\n        uint256[] memory _codes = new uint256[](_vaccineProofs.length);\r\n        for (uint256 i = 0; i < _vaccineProofs.length; i++) {\r\n            _codes[i] = vaccinationsDatabase[msg.sender].vaccineCode[\r\n                _vaccineProofs[i]\r\n            ];\r\n        }\r\n        return _codes;\r\n    }\r\n\r\n    function getVaccineDoses() public view returns (uint256[] memory) {\r\n        bytes32[] memory _vaccineProofs = vaccinationsDatabase[msg.sender]\r\n            .vaccineProofs;\r\n        uint256[] memory _doses = new uint256[](_vaccineProofs.length);\r\n        for (uint256 i = 0; i < _vaccineProofs.length; i++) {\r\n            _doses[i] = vaccinationsDatabase[msg.sender].vaccineDose[\r\n                _vaccineProofs[i]\r\n            ];\r\n        }\r\n        return _doses;\r\n    }\r\n}\r\n",
  "sourcePath": "C:\\Users\\natan\\Desktop\\Blockchain Application\\vacblocks\\vaccination-smart-contract\\contracts\\VaccinationRegistry.sol",
  "compiler": {
    "name": "solc",
    "version": "0.8.11+commit.d7f03943.Emscripten.clang"
  },
  "schemaVersion": "3.4.4",
  "updatedAt": "2022-06-17T04:29:33.259Z",
  "networkType": "ethereum",
  "devdoc": {
    "kind": "dev",
    "methods": {},
    "version": 1
  },
  "userdoc": {
    "kind": "user",
    "methods": {},
    "version": 1
  }
}