{
  "contractName": "VaccinationCentre",
  "abi": [
    {
      "anonymous": false,
      "inputs": [
        {
          "indexed": false,
          "internalType": "address",
          "name": "_centreAddress",
          "type": "address"
        },
        {
          "indexed": false,
          "internalType": "string",
          "name": "_name",
          "type": "string"
        },
        {
          "indexed": false,
          "internalType": "string",
          "name": "_location",
          "type": "string"
        }
      ],
      "name": "VaccinationCentreRegistered",
      "type": "event"
    },
    {
      "inputs": [
        {
          "internalType": "address",
          "name": "_centreAddress",
          "type": "address"
        },
        {
          "internalType": "string",
          "name": "_name",
          "type": "string"
        },
        {
          "internalType": "string",
          "name": "_location",
          "type": "string"
        }
      ],
      "name": "registerCentre",
      "outputs": [],
      "stateMutability": "nonpayable",
      "type": "function"
    },
    {
      "inputs": [
        {
          "internalType": "address",
          "name": "_centreAddress",
          "type": "address"
        }
      ],
      "name": "getCentreDetails",
      "outputs": [
        {
          "components": [
            {
              "internalType": "bool",
              "name": "isRegistered",
              "type": "bool"
            },
            {
              "internalType": "string",
              "name": "name",
              "type": "string"
            },
            {
              "internalType": "string",
              "name": "location",
              "type": "string"
            }
          ],
          "internalType": "struct VaccinationCentre.Centre",
          "name": "",
          "type": "tuple"
        }
      ],
      "stateMutability": "view",
      "type": "function",
      "constant": true
    }
  ],
  "bytecode": "0x608060405234801561001057600080fd5b5061098e806100206000396000f3fe608060405234801561001057600080fd5b50600436106100365760003560e01c806333a5eb7d1461003b578063880458d914610057575b600080fd5b610055600480360381019061005091906105f3565b610087565b005b610071600480360381019061006c919061067e565b6101de565b60405161007e91906107a5565b60405180910390f35b3373ffffffffffffffffffffffffffffffffffffffff168373ffffffffffffffffffffffffffffffffffffffff16146100f5576040517f08c379a00000000000000000000000000000000000000000000000000000000081526004016100ec9061084a565b60405180910390fd5b60008060008573ffffffffffffffffffffffffffffffffffffffff1673ffffffffffffffffffffffffffffffffffffffff16815260200190815260200160002090508060000160009054906101000a900460ff1661016b5760018160000160006101000a81548160ff0219169083151502179055505b82816001019080519060200190610183929190610375565b508181600201908051906020019061019c929190610375565b507f3dd8591a27621accba270977876ebe9e7a80787c97838075844c268043d34da08484846040516101d0939291906108b2565b60405180910390a150505050565b6101e66103fb565b6000808373ffffffffffffffffffffffffffffffffffffffff1673ffffffffffffffffffffffffffffffffffffffff1681526020019081526020016000206040518060600160405290816000820160009054906101000a900460ff1615151515815260200160018201805461025a90610926565b80601f016020809104026020016040519081016040528092919081815260200182805461028690610926565b80156102d35780601f106102a8576101008083540402835291602001916102d3565b820191906000526020600020905b8154815290600101906020018083116102b657829003601f168201915b505050505081526020016002820180546102ec90610926565b80601f016020809104026020016040519081016040528092919081815260200182805461031890610926565b80156103655780601f1061033a57610100808354040283529160200191610365565b820191906000526020600020905b81548152906001019060200180831161034857829003601f168201915b5050505050815250509050919050565b82805461038190610926565b90600052602060002090601f0160209004810192826103a357600085556103ea565b82601f106103bc57805160ff19168380011785556103ea565b828001600101855582156103ea579182015b828111156103e95782518255916020019190600101906103ce565b5b5090506103f7919061041e565b5090565b604051806060016040528060001515815260200160608152602001606081525090565b5b8082111561043757600081600090555060010161041f565b5090565b6000604051905090565b600080fd5b600080fd5b600073ffffffffffffffffffffffffffffffffffffffff82169050919050565b600061047a8261044f565b9050919050565b61048a8161046f565b811461049557600080fd5b50565b6000813590506104a781610481565b92915050565b600080fd5b600080fd5b6000601f19601f8301169050919050565b7f4e487b7100000000000000000000000000000000000000000000000000000000600052604160045260246000fd5b610500826104b7565b810181811067ffffffffffffffff8211171561051f5761051e6104c8565b5b80604052505050565b600061053261043b565b905061053e82826104f7565b919050565b600067ffffffffffffffff82111561055e5761055d6104c8565b5b610567826104b7565b9050602081019050919050565b82818337600083830152505050565b600061059661059184610543565b610528565b9050828152602081018484840111156105b2576105b16104b2565b5b6105bd848285610574565b509392505050565b600082601f8301126105da576105d96104ad565b5b81356105ea848260208601610583565b91505092915050565b60008060006060848603121561060c5761060b610445565b5b600061061a86828701610498565b935050602084013567ffffffffffffffff81111561063b5761063a61044a565b5b610647868287016105c5565b925050604084013567ffffffffffffffff8111156106685761066761044a565b5b610674868287016105c5565b9150509250925092565b60006020828403121561069457610693610445565b5b60006106a284828501610498565b91505092915050565b60008115159050919050565b6106c0816106ab565b82525050565b600081519050919050565b600082825260208201905092915050565b60005b838110156107005780820151818401526020810190506106e5565b8381111561070f576000848401525b50505050565b6000610720826106c6565b61072a81856106d1565b935061073a8185602086016106e2565b610743816104b7565b840191505092915050565b600060608301600083015161076660008601826106b7565b506020830151848203602086015261077e8282610715565b915050604083015184820360408601526107988282610715565b9150508091505092915050565b600060208201905081810360008301526107bf818461074e565b905092915050565b600082825260208201905092915050565b7f596f75206172652063616e6e6f7420726567697374657220746869732061646460008201527f7265737320617320612076616363696e6174696f6e2063656e74726500000000602082015250565b6000610834603c836107c7565b915061083f826107d8565b604082019050919050565b6000602082019050818103600083015261086381610827565b9050919050565b6108738161046f565b82525050565b6000610884826106c6565b61088e81856107c7565b935061089e8185602086016106e2565b6108a7816104b7565b840191505092915050565b60006060820190506108c7600083018661086a565b81810360208301526108d98185610879565b905081810360408301526108ed8184610879565b9050949350505050565b7f4e487b7100000000000000000000000000000000000000000000000000000000600052602260045260246000fd5b6000600282049050600182168061093e57607f821691505b60208210811415610952576109516108f7565b5b5091905056fea264697066735822122062efd4b9f495edccb0c85f570b29cd32c8843c156c45f6885448a4eb0bd14b8464736f6c634300080b0033",
  "immutableReferences": {},
  "source": "//SPDX-License-Identifier: MIT\r\npragma solidity >=0.7.0;\r\n\r\ncontract VaccinationCentre {\r\n    struct Centre {\r\n        bool isRegistered;\r\n        string name;\r\n        string location;\r\n    }\r\n\r\n    mapping(address => Centre) centreDatabase;\r\n\r\n    event VaccinationCentreRegistered(\r\n        address _centreAddress,\r\n        string _name,\r\n        string _location\r\n    );\r\n\r\n    function registerCentre(\r\n        address _centreAddress,\r\n        string memory _name,\r\n        string memory _location\r\n    ) public {\r\n        require(\r\n            _centreAddress == msg.sender,\r\n            \"You are cannot register this address as a vaccination centre\"\r\n        );\r\n        Centre storage centre = centreDatabase[_centreAddress];\r\n\r\n        if (!centre.isRegistered) {\r\n            centre.isRegistered = true;\r\n        }\r\n\r\n        centre.name = _name;\r\n        centre.location = _location;\r\n\r\n        emit VaccinationCentreRegistered(_centreAddress, _name, _location);\r\n    }\r\n\r\n    function getCentreDetails(address _centreAddress)\r\n        public\r\n        view\r\n        returns (Centre memory)\r\n    {\r\n        return centreDatabase[_centreAddress];\r\n    }\r\n}\r\n",
  "sourcePath": "C:\\Users\\natan\\Desktop\\Blockchain Application\\vacblocks\\vaccination-smart-contract\\contracts\\VaccinationCentre.sol",
  "compiler": {
    "name": "solc",
    "version": "0.8.11+commit.d7f03943.Emscripten.clang"
  },
  "schemaVersion": "3.4.4",
  "updatedAt": "2022-06-17T04:29:33.225Z",
  "networkType": "ethereum",
  "devdoc": {
    "kind": "dev",
    "methods": {},
    "version": 1
  },
  "userdoc": {
    "kind": "user",
    "methods": {},
    "version": 1
  }
}