{
  "contractName": "VaccinationValidator",
  "abi": [
    {
      "anonymous": false,
      "inputs": [
        {
          "indexed": false,
          "internalType": "address",
          "name": "_area",
          "type": "address"
        },
        {
          "indexed": false,
          "internalType": "uint256",
          "name": "_approvedVaccine",
          "type": "uint256"
        },
        {
          "indexed": false,
          "internalType": "uint256",
          "name": "_dose",
          "type": "uint256"
        }
      ],
      "name": "VaccinationRuleGenerated",
      "type": "event"
    },
    {
      "inputs": [
        {
          "internalType": "address",
          "name": "_area",
          "type": "address"
        },
        {
          "internalType": "uint256",
          "name": "_approvedVaccine",
          "type": "uint256"
        },
        {
          "internalType": "uint256",
          "name": "_dose",
          "type": "uint256"
        }
      ],
      "name": "registerRule",
      "outputs": [],
      "stateMutability": "nonpayable",
      "type": "function"
    },
    {
      "inputs": [
        {
          "internalType": "address",
          "name": "_area",
          "type": "address"
        },
        {
          "internalType": "uint256",
          "name": "_vaccineCode",
          "type": "uint256"
        },
        {
          "internalType": "uint256",
          "name": "_vaccineDose",
          "type": "uint256"
        }
      ],
      "name": "vaccinationIsValid",
      "outputs": [
        {
          "internalType": "bool",
          "name": "",
          "type": "bool"
        }
      ],
      "stateMutability": "view",
      "type": "function",
      "constant": true
    },
    {
      "inputs": [
        {
          "internalType": "address",
          "name": "_area",
          "type": "address"
        }
      ],
      "name": "getRule",
      "outputs": [
        {
          "internalType": "uint256[2][]",
          "name": "",
          "type": "uint256[2][]"
        }
      ],
      "stateMutability": "view",
      "type": "function",
      "constant": true
    }
  ],
  "bytecode": "0x608060405234801561001057600080fd5b50610ae1806100206000396000f3fe608060405234801561001057600080fd5b50600436106100415760003560e01c8063217275c514610046578063b37e47e214610076578063ce206a42146100a6575b600080fd5b610060600480360381019061005b9190610619565b6100c2565b60405161006d9190610687565b60405180910390f35b610090600480360381019061008b91906106a2565b6101f2565b60405161009d9190610829565b60405180910390f35b6100c060048036038101906100bb9190610619565b610375565b005b6000806000808673ffffffffffffffffffffffffffffffffffffffff1673ffffffffffffffffffffffffffffffffffffffff16815260200190815260200160002090508060000160009054906101000a900460ff16610156576040517f08c379a000000000000000000000000000000000000000000000000000000000815260040161014d906108ce565b60405180910390fd5b600080600090505b82600101805490508110156101b157826001018181548110610183576101826108ee565b5b906000526020600020015486141561019e57600191506101b1565b80806101a99061094c565b91505061015e565b508015806101d45750838260020160008781526020019081526020016000205414155b156101e4576000925050506101eb565b6001925050505b9392505050565b606060008060008473ffffffffffffffffffffffffffffffffffffffff1673ffffffffffffffffffffffffffffffffffffffff168152602001908152602001600020905060008160010180549050905060008167ffffffffffffffff81111561025e5761025d610995565b5b60405190808252806020026020018201604052801561029757816020015b61028461055e565b81526020019060019003908161027c5790505b50905060005b828110156103695760008460010182815481106102bd576102bc6108ee565b5b906000526020600020015490506000856002016000838152602001908152602001600020549050818484815181106102f8576102f76108ee565b5b6020026020010151600060028110610313576103126108ee565b5b602002018181525050808484815181106103305761032f6108ee565b5b602002602001015160016002811061034b5761034a6108ee565b5b602002018181525050505080806103619061094c565b91505061029d565b50809350505050919050565b3373ffffffffffffffffffffffffffffffffffffffff168373ffffffffffffffffffffffffffffffffffffffff16146103e3576040517f08c379a00000000000000000000000000000000000000000000000000000000081526004016103da90610a36565b60405180910390fd5b60008060008573ffffffffffffffffffffffffffffffffffffffff1673ffffffffffffffffffffffffffffffffffffffff16815260200190815260200160002090508060000160009054906101000a900460ff166104595760018160000160006101000a81548160ff0219169083151502179055505b60006001905060005b82600101805490508110156104cf57826001018181548110610487576104866108ee565b5b90600052602060002001548514156104bc578383600201600087815260200190815260200160002081905550600091506104cf565b80806104c79061094c565b915050610462565b50801561051c578160010184908060018154018082558091505060019003906000526020600020016000909190919091505582826002016000868152602001908152602001600020819055505b7f984cdb1b516bcaecc48b1a68afbe484bc2399ae3e44b775641d86ccf82731efd85858560405161054f93929190610a74565b60405180910390a15050505050565b6040518060400160405280600290602082028036833780820191505090505090565b600080fd5b600073ffffffffffffffffffffffffffffffffffffffff82169050919050565b60006105b082610585565b9050919050565b6105c0816105a5565b81146105cb57600080fd5b50565b6000813590506105dd816105b7565b92915050565b6000819050919050565b6105f6816105e3565b811461060157600080fd5b50565b600081359050610613816105ed565b92915050565b60008060006060848603121561063257610631610580565b5b6000610640868287016105ce565b935050602061065186828701610604565b925050604061066286828701610604565b9150509250925092565b60008115159050919050565b6106818161066c565b82525050565b600060208201905061069c6000830184610678565b92915050565b6000602082840312156106b8576106b7610580565b5b60006106c6848285016105ce565b91505092915050565b600081519050919050565b600082825260208201905092915050565b6000819050602082019050919050565b600060029050919050565b600081905092915050565b6000819050919050565b610724816105e3565b82525050565b6000610736838361071b565b60208301905092915050565b6000602082019050919050565b610758816106fb565b6107628184610706565b925061076d82610711565b8060005b8381101561079e578151610785878261072a565b965061079083610742565b925050600181019050610771565b505050505050565b60006107b2838361074f565b60408301905092915050565b6000602082019050919050565b60006107d6826106cf565b6107e081856106da565b93506107eb836106eb565b8060005b8381101561081c57815161080388826107a6565b975061080e836107be565b9250506001810190506107ef565b5085935050505092915050565b6000602082019050818103600083015261084381846107cb565b905092915050565b600082825260208201905092915050565b7f56616363696e6174696f6e2072756c657320617265206e6f742072656769737460008201527f6572656420666f72207468697320617265610000000000000000000000000000602082015250565b60006108b860328361084b565b91506108c38261085c565b604082019050919050565b600060208201905081810360008301526108e7816108ab565b9050919050565b7f4e487b7100000000000000000000000000000000000000000000000000000000600052603260045260246000fd5b7f4e487b7100000000000000000000000000000000000000000000000000000000600052601160045260246000fd5b6000610957826105e3565b91507fffffffffffffffffffffffffffffffffffffffffffffffffffffffffffffffff82141561098a5761098961091d565b5b600182019050919050565b7f4e487b7100000000000000000000000000000000000000000000000000000000600052604160045260246000fd5b7f596f752063616e6e6f7420726567697374657220612072756c6520666f72207460008201527f6869732061646472657373000000000000000000000000000000000000000000602082015250565b6000610a20602b8361084b565b9150610a2b826109c4565b604082019050919050565b60006020820190508181036000830152610a4f81610a13565b9050919050565b610a5f816105a5565b82525050565b610a6e816105e3565b82525050565b6000606082019050610a896000830186610a56565b610a966020830185610a65565b610aa36040830184610a65565b94935050505056fea26469706673582212206310ab59c636bad118e010687c6e7b564497bd356f36f062b2696a481a63449964736f6c634300080b0033",
  "immutableReferences": {},
  "source": "// SPDX-License-Identifier: MIT\r\npragma solidity >=0.7.0;\r\n\r\ncontract VaccinationValidator {\r\n    struct Rule {\r\n        bool isRegistered;\r\n        uint256[] approvedVaccines;\r\n        mapping(uint256 => uint256) dose;\r\n    }\r\n\r\n    mapping(address => Rule) ruleDatabase;\r\n\r\n    event VaccinationRuleGenerated(\r\n        address _area,\r\n        uint256 _approvedVaccine,\r\n        uint256 _dose\r\n    );\r\n\r\n    function registerRule(\r\n        address _area,\r\n        uint256 _approvedVaccine,\r\n        uint256 _dose\r\n    ) public {\r\n        require(\r\n            _area == msg.sender,\r\n            \"You cannot register a rule for this address\"\r\n        );\r\n\r\n        Rule storage rule = ruleDatabase[_area];\r\n\r\n        if (!rule.isRegistered) {\r\n            rule.isRegistered = true;\r\n        }\r\n\r\n        bool _newVaccine = true;\r\n        for (uint256 i = 0; i < rule.approvedVaccines.length; i++) {\r\n            if (_approvedVaccine == rule.approvedVaccines[i]) {\r\n                rule.dose[_approvedVaccine] = _dose;\r\n                _newVaccine = false;\r\n                break;\r\n            }\r\n        }\r\n        if (_newVaccine) {\r\n            rule.approvedVaccines.push(_approvedVaccine);\r\n            rule.dose[_approvedVaccine] = _dose;\r\n        }\r\n\r\n        emit VaccinationRuleGenerated(_area, _approvedVaccine, _dose);\r\n    }\r\n\r\n    function vaccinationIsValid(\r\n        address _area,\r\n        uint256 _vaccineCode,\r\n        uint256 _vaccineDose\r\n    ) public view returns (bool) {\r\n        Rule storage rule = ruleDatabase[_area];\r\n        require(\r\n            rule.isRegistered,\r\n            \"Vaccination rules are not registered for this area\"\r\n        );\r\n\r\n        bool vaccineApproved;\r\n        for (uint256 i = 0; i < rule.approvedVaccines.length; i++) {\r\n            if (_vaccineCode == rule.approvedVaccines[i]) {\r\n                vaccineApproved = true;\r\n                break;\r\n            }\r\n        }\r\n\r\n        if (!vaccineApproved || rule.dose[_vaccineCode] != _vaccineDose) {\r\n            return false;\r\n        }\r\n\r\n        return true;\r\n    }\r\n\r\n    function getRule(address _area) public view returns (uint256[2][] memory) {\r\n        Rule storage rule = ruleDatabase[_area];\r\n        uint256 _ruleCount = rule.approvedVaccines.length;\r\n        uint256[2][] memory _approvedList = new uint256[2][](_ruleCount);\r\n        for (uint256 i = 0; i < _ruleCount; i++) {\r\n            uint256 _approvedVaccine = rule.approvedVaccines[i];\r\n            uint256 _dose = rule.dose[_approvedVaccine];\r\n            _approvedList[i][0] = _approvedVaccine;\r\n            _approvedList[i][1] = _dose;\r\n        }\r\n        return _approvedList;\r\n    }\r\n}\r\n",
  "sourcePath": "C:\\Users\\natan\\Desktop\\Blockchain Application\\vacblocks\\vaccination-smart-contract\\contracts\\VaccinationValidator.sol",
  "compiler": {
    "name": "solc",
    "version": "0.8.11+commit.d7f03943.Emscripten.clang"
  },
  "schemaVersion": "3.4.4",
  "updatedAt": "2022-06-17T04:29:33.235Z",
  "networkType": "ethereum",
  "devdoc": {
    "kind": "dev",
    "methods": {},
    "version": 1
  },
  "userdoc": {
    "kind": "user",
    "methods": {},
    "version": 1
  }
}